{
  "contractName": "EvContract",
  "abi": [
    {
      "constant": true,
      "inputs": [],
      "name": "cntB",
      "outputs": [
        {
          "name": "",
          "type": "uint256"
        }
      ],
      "payable": false,
      "stateMutability": "view",
      "type": "function",
      "signature": "0x04389cca"
    },
    {
      "constant": true,
      "inputs": [],
      "name": "name",
      "outputs": [
        {
          "name": "",
          "type": "string"
        }
      ],
      "payable": false,
      "stateMutability": "view",
      "type": "function",
      "signature": "0x06fdde03"
    },
    {
      "constant": true,
      "inputs": [],
      "name": "totalSupply",
      "outputs": [
        {
          "name": "",
          "type": "uint256"
        }
      ],
      "payable": false,
      "stateMutability": "view",
      "type": "function",
      "signature": "0x18160ddd"
    },
    {
      "constant": true,
      "inputs": [],
      "name": "fundsWallet",
      "outputs": [
        {
          "name": "",
          "type": "address"
        }
      ],
      "payable": false,
      "stateMutability": "view",
      "type": "function",
      "signature": "0x2194f3a2"
    },
    {
      "constant": true,
      "inputs": [],
      "name": "decimals",
      "outputs": [
        {
          "name": "",
          "type": "uint8"
        }
      ],
      "payable": false,
      "stateMutability": "view",
      "type": "function",
      "signature": "0x313ce567"
    },
    {
      "constant": true,
      "inputs": [],
      "name": "cntI",
      "outputs": [
        {
          "name": "",
          "type": "uint256"
        }
      ],
      "payable": false,
      "stateMutability": "view",
      "type": "function",
      "signature": "0x51d8f93b"
    },
    {
      "constant": true,
      "inputs": [],
      "name": "cntA",
      "outputs": [
        {
          "name": "",
          "type": "uint256"
        }
      ],
      "payable": false,
      "stateMutability": "view",
      "type": "function",
      "signature": "0x5fc10136"
    },
    {
      "constant": true,
      "inputs": [],
      "name": "unitsOneEthCanBuy",
      "outputs": [
        {
          "name": "",
          "type": "uint256"
        }
      ],
      "payable": false,
      "stateMutability": "view",
      "type": "function",
      "signature": "0x65f2bc2e"
    },
    {
      "constant": true,
      "inputs": [],
      "name": "totalEthInWei",
      "outputs": [
        {
          "name": "",
          "type": "uint256"
        }
      ],
      "payable": false,
      "stateMutability": "view",
      "type": "function",
      "signature": "0x933ba413"
    },
    {
      "constant": true,
      "inputs": [],
      "name": "symbol",
      "outputs": [
        {
          "name": "",
          "type": "string"
        }
      ],
      "payable": false,
      "stateMutability": "view",
      "type": "function",
      "signature": "0x95d89b41"
    },
    {
      "constant": true,
      "inputs": [],
      "name": "price",
      "outputs": [
        {
          "name": "",
          "type": "uint256"
        }
      ],
      "payable": false,
      "stateMutability": "view",
      "type": "function",
      "signature": "0xa035b1fe"
    },
    {
      "constant": true,
      "inputs": [
        {
          "name": "",
          "type": "uint256"
        }
      ],
      "name": "idles",
      "outputs": [
        {
          "name": "id",
          "type": "uint256"
        },
        {
          "name": "carNum",
          "type": "string"
        },
        {
          "name": "name",
          "type": "string"
        },
        {
          "name": "owner",
          "type": "address"
        },
        {
          "name": "socI",
          "type": "uint256"
        },
        {
          "name": "socR",
          "type": "uint256"
        },
        {
          "name": "price",
          "type": "uint256"
        },
        {
          "name": "purchased",
          "type": "bool"
        }
      ],
      "payable": false,
      "stateMutability": "view",
      "type": "function",
      "signature": "0xc7983e5c"
    },
    {
      "constant": true,
      "inputs": [
        {
          "name": "",
          "type": "uint256"
        }
      ],
      "name": "sellers",
      "outputs": [
        {
          "name": "id",
          "type": "uint256"
        },
        {
          "name": "carNum",
          "type": "string"
        },
        {
          "name": "name",
          "type": "string"
        },
        {
          "name": "owner",
          "type": "address"
        },
        {
          "name": "socI",
          "type": "uint256"
        },
        {
          "name": "socR",
          "type": "uint256"
        },
        {
          "name": "price",
          "type": "uint256"
        },
        {
          "name": "purchased",
          "type": "bool"
        }
      ],
      "payable": false,
      "stateMutability": "view",
      "type": "function",
      "signature": "0xcee26ed5"
    },
    {
      "constant": true,
      "inputs": [
        {
          "name": "",
          "type": "uint256"
        }
      ],
      "name": "buyers",
      "outputs": [
        {
          "name": "id",
          "type": "uint256"
        },
        {
          "name": "carNum",
          "type": "string"
        },
        {
          "name": "name",
          "type": "string"
        },
        {
          "name": "owner",
          "type": "address"
        },
        {
          "name": "socI",
          "type": "uint256"
        },
        {
          "name": "socR",
          "type": "uint256"
        },
        {
          "name": "price",
          "type": "uint256"
        },
        {
          "name": "purchased",
          "type": "bool"
        }
      ],
      "payable": false,
      "stateMutability": "view",
      "type": "function",
      "signature": "0xf2aa8218"
    },
    {
      "constant": true,
      "inputs": [
        {
          "name": "",
          "type": "uint256"
        }
      ],
      "name": "cars",
      "outputs": [
        {
          "name": "id",
          "type": "uint256"
        },
        {
          "name": "carNum",
          "type": "string"
        },
        {
          "name": "name",
          "type": "string"
        },
        {
          "name": "owner",
          "type": "address"
        },
        {
          "name": "socI",
          "type": "uint256"
        },
        {
          "name": "socR",
          "type": "uint256"
        },
        {
          "name": "price",
          "type": "uint256"
        },
        {
          "name": "purchased",
          "type": "bool"
        }
      ],
      "payable": false,
      "stateMutability": "view",
      "type": "function",
      "signature": "0xf7746e36"
    },
    {
      "constant": true,
      "inputs": [],
      "name": "cntS",
      "outputs": [
        {
          "name": "",
          "type": "uint256"
        }
      ],
      "payable": false,
      "stateMutability": "view",
      "type": "function",
      "signature": "0xfb395b16"
    },
    {
      "inputs": [],
      "payable": false,
      "stateMutability": "nonpayable",
      "type": "constructor",
      "signature": "constructor"
    },
    {
      "payable": true,
      "stateMutability": "payable",
      "type": "fallback"
    },
    {
      "anonymous": false,
      "inputs": [
        {
          "indexed": false,
          "name": "id",
          "type": "uint256"
        },
        {
          "indexed": false,
          "name": "carNum",
          "type": "string"
        },
        {
          "indexed": false,
          "name": "name",
          "type": "string"
        },
        {
          "indexed": false,
          "name": "owner",
          "type": "address"
        },
        {
          "indexed": false,
          "name": "socI",
          "type": "uint256"
        },
        {
          "indexed": false,
          "name": "socR",
          "type": "uint256"
        },
        {
          "indexed": false,
          "name": "price",
          "type": "uint256"
        },
        {
          "indexed": false,
          "name": "purchased",
          "type": "bool"
        }
      ],
      "name": "CarSet",
      "type": "event",
      "signature": "0x1d7afa74519c2a79d9d5ae30a55e5004783b1d3f4efcc28fc2096fa64cc46226"
    },
    {
      "anonymous": false,
      "inputs": [
        {
          "indexed": false,
          "name": "id",
          "type": "uint256"
        },
        {
          "indexed": false,
          "name": "carNum",
          "type": "string"
        },
        {
          "indexed": false,
          "name": "name",
          "type": "string"
        },
        {
          "indexed": false,
          "name": "owner",
          "type": "address"
        },
        {
          "indexed": false,
          "name": "socI",
          "type": "uint256"
        },
        {
          "indexed": false,
          "name": "socR",
          "type": "uint256"
        },
        {
          "indexed": false,
          "name": "price",
          "type": "uint256"
        },
        {
          "indexed": false,
          "name": "purchased",
          "type": "bool"
        }
      ],
      "name": "CarBuy",
      "type": "event",
      "signature": "0x67a37214bd6638049b0dbf92518a1cac6a53f9723b23582992b6a2292f14f7e7"
    },
    {
      "anonymous": false,
      "inputs": [
        {
          "indexed": true,
          "name": "_from",
          "type": "address"
        },
        {
          "indexed": true,
          "name": "_to",
          "type": "address"
        },
        {
          "indexed": false,
          "name": "_value",
          "type": "uint256"
        }
      ],
      "name": "Transfer",
      "type": "event",
      "signature": "0xddf252ad1be2c89b69c2b068fc378daa952ba7f163c4a11628f55a4df523b3ef"
    },
    {
      "anonymous": false,
      "inputs": [
        {
          "indexed": true,
          "name": "_owner",
          "type": "address"
        },
        {
          "indexed": true,
          "name": "_spender",
          "type": "address"
        },
        {
          "indexed": false,
          "name": "_value",
          "type": "uint256"
        }
      ],
      "name": "Approval",
      "type": "event",
      "signature": "0x8c5be1e5ebec7d5bd14f71427d1e84f3dd0314c0f7b2291e5b200ac8c7c3b925"
    },
    {
      "constant": true,
      "inputs": [
        {
          "name": "_owner",
          "type": "address"
        }
      ],
      "name": "balanceOf",
      "outputs": [
        {
          "name": "balance",
          "type": "uint256"
        }
      ],
      "payable": false,
      "stateMutability": "view",
      "type": "function",
      "signature": "0x70a08231"
    },
    {
      "constant": false,
      "inputs": [
        {
          "name": "_to",
          "type": "address"
        },
        {
          "name": "_value",
          "type": "uint256"
        }
      ],
      "name": "transfer",
      "outputs": [
        {
          "name": "success",
          "type": "bool"
        }
      ],
      "payable": false,
      "stateMutability": "nonpayable",
      "type": "function",
      "signature": "0xa9059cbb"
    },
    {
      "constant": false,
      "inputs": [
        {
          "name": "_from",
          "type": "address"
        },
        {
          "name": "_to",
          "type": "address"
        },
        {
          "name": "_value",
          "type": "uint256"
        }
      ],
      "name": "transferFrom",
      "outputs": [
        {
          "name": "success",
          "type": "bool"
        }
      ],
      "payable": false,
      "stateMutability": "nonpayable",
      "type": "function",
      "signature": "0x23b872dd"
    },
    {
      "constant": false,
      "inputs": [
        {
          "name": "_spender",
          "type": "address"
        },
        {
          "name": "_value",
          "type": "uint256"
        }
      ],
      "name": "approve",
      "outputs": [
        {
          "name": "success",
          "type": "bool"
        }
      ],
      "payable": false,
      "stateMutability": "nonpayable",
      "type": "function",
      "signature": "0x095ea7b3"
    },
    {
      "constant": true,
      "inputs": [
        {
          "name": "_owner",
          "type": "address"
        },
        {
          "name": "_spender",
          "type": "address"
        }
      ],
      "name": "allowance",
      "outputs": [
        {
          "name": "remaining",
          "type": "uint256"
        }
      ],
      "payable": false,
      "stateMutability": "view",
      "type": "function",
      "signature": "0xdd62ed3e"
    },
    {
      "constant": false,
      "inputs": [
        {
          "name": "_carNum",
          "type": "string"
        },
        {
          "name": "_name",
          "type": "string"
        },
        {
          "name": "_socI",
          "type": "uint256"
        },
        {
          "name": "_socR",
          "type": "uint256"
        }
      ],
      "name": "setCar",
      "outputs": [],
      "payable": false,
      "stateMutability": "nonpayable",
      "type": "function",
      "signature": "0xfb60602d"
    },
    {
      "constant": false,
      "inputs": [
        {
          "name": "_id",
          "type": "uint256"
        }
      ],
      "name": "buyCar",
      "outputs": [],
      "payable": true,
      "stateMutability": "payable",
      "type": "function",
      "signature": "0x6c231060"
    }
  ],
  "bytecode": "0x60806040526000805560006001556000600255600060035560006004553480156200002957600080fd5b5069d3c21bcecceda1000000600960003373ffffffffffffffffffffffffffffffffffffffff1673ffffffffffffffffffffffffffffffffffffffff1681526020019081526020016000208190555069d3c21bcecceda1000000600e819055506040805190810160405280600781526020017f4556546f6b656e00000000000000000000000000000000000000000000000000815250600c9080519060200190620000d692919062000190565b506012600d60006101000a81548160ff021916908360ff1602179055506040805190810160405280600381526020017f4556540000000000000000000000000000000000000000000000000000000000815250600b90805190602001906200014092919062000190565b50600a600f8190555033601160006101000a81548173ffffffffffffffffffffffffffffffffffffffff021916908373ffffffffffffffffffffffffffffffffffffffff1602179055506200023f565b828054600181600116156101000203166002900490600052602060002090601f016020900481019282601f10620001d357805160ff191683800117855562000204565b8280016001018555821562000204579182015b8281111562000203578251825591602001919060010190620001e6565b5b50905062000213919062000217565b5090565b6200023c91905b80821115620002385760008160009055506001016200021e565b5090565b90565b612abb806200024f6000396000f3fe608060405260043610610133576000357c0100000000000000000000000000000000000000000000000000000000900463ffffffff16806304389cca146103f857806306fdde0314610423578063095ea7b3146104b357806318160ddd146105265780632194f3a21461055157806323b872dd146105a8578063313ce5671461063b57806351d8f93b1461066c5780635fc101361461069757806365f2bc2e146106c25780636c231060146106ed57806370a082311461071b578063933ba4131461078057806395d89b41146107ab578063a035b1fe1461083b578063a9059cbb14610866578063c7983e5c146108d9578063cee26ed514610a53578063dd62ed3e14610bcd578063f2aa821814610c52578063f7746e3614610dcc578063fb395b1614610f46578063fb60602d14610f71575b34601054016010819055506000600f54340290508060096000601160009054906101000a900473ffffffffffffffffffffffffffffffffffffffff1673ffffffffffffffffffffffffffffffffffffffff1673ffffffffffffffffffffffffffffffffffffffff16815260200190815260200160002054101515156101b757600080fd5b8060096000601160009054906101000a900473ffffffffffffffffffffffffffffffffffffffff1673ffffffffffffffffffffffffffffffffffffffff1673ffffffffffffffffffffffffffffffffffffffff168152602001908152602001600020540360096000601160009054906101000a900473ffffffffffffffffffffffffffffffffffffffff1673ffffffffffffffffffffffffffffffffffffffff1673ffffffffffffffffffffffffffffffffffffffff1681526020019081526020016000208190555080600960003373ffffffffffffffffffffffffffffffffffffffff1673ffffffffffffffffffffffffffffffffffffffff1681526020019081526020016000205401600960003373ffffffffffffffffffffffffffffffffffffffff1673ffffffffffffffffffffffffffffffffffffffff168152602001908152602001600020819055503373ffffffffffffffffffffffffffffffffffffffff16601160009054906101000a900473ffffffffffffffffffffffffffffffffffffffff1673ffffffffffffffffffffffffffffffffffffffff167fddf252ad1be2c89b69c2b068fc378daa952ba7f163c4a11628f55a4df523b3ef836040518082815260200191505060405180910390a3601160009054906101000a900473ffffffffffffffffffffffffffffffffffffffff1673ffffffffffffffffffffffffffffffffffffffff166108fc349081150290604051600060405180830381858888f193505050501580156103f4573d6000803e3d6000fd5b5050005b34801561040457600080fd5b5061040d6110e4565b6040518082815260200191505060405180910390f35b34801561042f57600080fd5b506104386110ea565b6040518080602001828103825283818151815260200191508051906020019080838360005b8381101561047857808201518184015260208101905061045d565b50505050905090810190601f1680156104a55780820380516001836020036101000a031916815260200191505b509250505060405180910390f35b3480156104bf57600080fd5b5061050c600480360360408110156104d657600080fd5b81019080803573ffffffffffffffffffffffffffffffffffffffff16906020019092919080359060200190929190505050611188565b604051808215151515815260200191505060405180910390f35b34801561053257600080fd5b5061053b61127a565b6040518082815260200191505060405180910390f35b34801561055d57600080fd5b50610566611280565b604051808273ffffffffffffffffffffffffffffffffffffffff1673ffffffffffffffffffffffffffffffffffffffff16815260200191505060405180910390f35b3480156105b457600080fd5b50610621600480360360608110156105cb57600080fd5b81019080803573ffffffffffffffffffffffffffffffffffffffff169060200190929190803573ffffffffffffffffffffffffffffffffffffffff169060200190929190803590602001909291905050506112a6565b604051808215151515815260200191505060405180910390f35b34801561064757600080fd5b5061065061143c565b604051808260ff1660ff16815260200191505060405180910390f35b34801561067857600080fd5b5061068161144f565b6040518082815260200191505060405180910390f35b3480156106a357600080fd5b506106ac611455565b6040518082815260200191505060405180910390f35b3480156106ce57600080fd5b506106d761145b565b6040518082815260200191505060405180910390f35b6107196004803603602081101561070357600080fd5b8101908080359060200190929190505050611461565b005b34801561072757600080fd5b5061076a6004803603602081101561073e57600080fd5b81019080803573ffffffffffffffffffffffffffffffffffffffff16906020019092919050505061198e565b6040518082815260200191505060405180910390f35b34801561078c57600080fd5b506107956119d7565b6040518082815260200191505060405180910390f35b3480156107b757600080fd5b506107c06119dd565b6040518080602001828103825283818151815260200191508051906020019080838360005b838110156108005780820151818401526020810190506107e5565b50505050905090810190601f16801561082d5780820380516001836020036101000a031916815260200191505b509250505060405180910390f35b34801561084757600080fd5b50610850611a7b565b6040518082815260200191505060405180910390f35b34801561087257600080fd5b506108bf6004803603604081101561088957600080fd5b81019080803573ffffffffffffffffffffffffffffffffffffffff16906020019092919080359060200190929190505050611a81565b604051808215151515815260200191505060405180910390f35b3480156108e557600080fd5b50610912600480360360208110156108fc57600080fd5b8101908080359060200190929190505050611b8c565b6040518089815260200180602001806020018873ffffffffffffffffffffffffffffffffffffffff1673ffffffffffffffffffffffffffffffffffffffff1681526020018781526020018681526020018581526020018415151515815260200183810383528a818151815260200191508051906020019080838360005b838110156109aa57808201518184015260208101905061098f565b50505050905090810190601f1680156109d75780820380516001836020036101000a031916815260200191505b50838103825289818151815260200191508051906020019080838360005b83811015610a105780820151818401526020810190506109f5565b50505050905090810190601f168015610a3d5780820380516001836020036101000a031916815260200191505b509a505050505050505050505060405180910390f35b348015610a5f57600080fd5b50610a8c60048036036020811015610a7657600080fd5b8101908080359060200190929190505050611d31565b6040518089815260200180602001806020018873ffffffffffffffffffffffffffffffffffffffff1673ffffffffffffffffffffffffffffffffffffffff1681526020018781526020018681526020018581526020018415151515815260200183810383528a818151815260200191508051906020019080838360005b83811015610b24578082015181840152602081019050610b09565b50505050905090810190601f168015610b515780820380516001836020036101000a031916815260200191505b50838103825289818151815260200191508051906020019080838360005b83811015610b8a578082015181840152602081019050610b6f565b50505050905090810190601f168015610bb75780820380516001836020036101000a031916815260200191505b509a505050505050505050505060405180910390f35b348015610bd957600080fd5b50610c3c60048036036040811015610bf057600080fd5b81019080803573ffffffffffffffffffffffffffffffffffffffff169060200190929190803573ffffffffffffffffffffffffffffffffffffffff169060200190929190505050611ed6565b6040518082815260200191505060405180910390f35b348015610c5e57600080fd5b50610c8b60048036036020811015610c7557600080fd5b8101908080359060200190929190505050611f5d565b6040518089815260200180602001806020018873ffffffffffffffffffffffffffffffffffffffff1673ffffffffffffffffffffffffffffffffffffffff1681526020018781526020018681526020018581526020018415151515815260200183810383528a818151815260200191508051906020019080838360005b83811015610d23578082015181840152602081019050610d08565b50505050905090810190601f168015610d505780820380516001836020036101000a031916815260200191505b50838103825289818151815260200191508051906020019080838360005b83811015610d89578082015181840152602081019050610d6e565b50505050905090810190601f168015610db65780820380516001836020036101000a031916815260200191505b509a505050505050505050505060405180910390f35b348015610dd857600080fd5b50610e0560048036036020811015610def57600080fd5b8101908080359060200190929190505050612102565b6040518089815260200180602001806020018873ffffffffffffffffffffffffffffffffffffffff1673ffffffffffffffffffffffffffffffffffffffff1681526020018781526020018681526020018581526020018415151515815260200183810383528a818151815260200191508051906020019080838360005b83811015610e9d578082015181840152602081019050610e82565b50505050905090810190601f168015610eca5780820380516001836020036101000a031916815260200191505b50838103825289818151815260200191508051906020019080838360005b83811015610f03578082015181840152602081019050610ee8565b50505050905090810190601f168015610f305780820380516001836020036101000a031916815260200191505b509a505050505050505050505060405180910390f35b348015610f5257600080fd5b50610f5b6122a7565b6040518082815260200191505060405180910390f35b348015610f7d57600080fd5b506110e260048036036080811015610f9457600080fd5b8101908080359060200190640100000000811115610fb157600080fd5b820183602082011115610fc357600080fd5b80359060200191846001830284011164010000000083111715610fe557600080fd5b91908080601f016020809104026020016040519081016040528093929190818152602001838380828437600081840152601f19601f8201169050808301925050505050505091929192908035906020019064010000000081111561104857600080fd5b82018360208201111561105a57600080fd5b8035906020019184600183028401116401000000008311171561107c57600080fd5b91908080601f016020809104026020016040519081016040528093929190818152602001838380828437600081840152601f19601f82011690508083019250505050505050919291929080359060200190929190803590602001909291905050506122ad565b005b60015481565b600c8054600181600116156101000203166002900480601f0160208091040260200160405190810160405280929190818152602001828054600181600116156101000203166002900480156111805780601f1061115557610100808354040283529160200191611180565b820191906000526020600020905b81548152906001019060200180831161116357829003601f168201915b505050505081565b600081600a60003373ffffffffffffffffffffffffffffffffffffffff1673ffffffffffffffffffffffffffffffffffffffff16815260200190815260200160002060008573ffffffffffffffffffffffffffffffffffffffff1673ffffffffffffffffffffffffffffffffffffffff168152602001908152602001600020819055508273ffffffffffffffffffffffffffffffffffffffff163373ffffffffffffffffffffffffffffffffffffffff167f8c5be1e5ebec7d5bd14f71427d1e84f3dd0314c0f7b2291e5b200ac8c7c3b925846040518082815260200191505060405180910390a36001905092915050565b600e5481565b601160009054906101000a900473ffffffffffffffffffffffffffffffffffffffff1681565b600081600960008673ffffffffffffffffffffffffffffffffffffffff1673ffffffffffffffffffffffffffffffffffffffff1681526020019081526020016000206000828254039250508190555081600a60008673ffffffffffffffffffffffffffffffffffffffff1673ffffffffffffffffffffffffffffffffffffffff16815260200190815260200160002060008073ffffffffffffffffffffffffffffffffffffffff1673ffffffffffffffffffffffffffffffffffffffff1681526020019081526020016000206000828254039250508190555081600960008573ffffffffffffffffffffffffffffffffffffffff1673ffffffffffffffffffffffffffffffffffffffff168152602001908152602001600020600082825401925050819055508273ffffffffffffffffffffffffffffffffffffffff168473ffffffffffffffffffffffffffffffffffffffff167fddf252ad1be2c89b69c2b068fc378daa952ba7f163c4a11628f55a4df523b3ef846040518082815260200191505060405180910390a3600190509392505050565b600d60009054906101000a900460ff1681565b60025481565b60035481565b600f5481565b61146961298c565b60086000838152602001908152602001600020610100604051908101604052908160008201548152602001600182018054600181600116156101000203166002900480601f01602080910402602001604051908101604052809291908181526020018280546001816001161561010002031660029004801561152c5780601f106115015761010080835404028352916020019161152c565b820191906000526020600020905b81548152906001019060200180831161150f57829003601f168201915b50505050508152602001600282018054600181600116156101000203166002900480601f0160208091040260200160405190810160405280929190818152602001828054600181600116156101000203166002900480156115ce5780601f106115a3576101008083540402835291602001916115ce565b820191906000526020600020905b8154815290600101906020018083116115b157829003601f168201915b505050505081526020016003820160009054906101000a900473ffffffffffffffffffffffffffffffffffffffff1673ffffffffffffffffffffffffffffffffffffffff1673ffffffffffffffffffffffffffffffffffffffff1681526020016004820154815260200160058201548152602001600682015481526020016007820160009054906101000a900460ff16151515158152505090506000816060015190503373ffffffffffffffffffffffffffffffffffffffff168173ffffffffffffffffffffffffffffffffffffffff16141515156116ac57600080fd5b8160e001511515156116bd57600080fd5b6000670de0b6b3a76400008360c001510290506116de836060015182611a81565b5033836060019073ffffffffffffffffffffffffffffffffffffffff16908173ffffffffffffffffffffffffffffffffffffffff168152505060018360e001901515908115158152505082600860008681526020019081526020016000206000820151816000015560208201518160010190805190602001906117629291906129ea565b50604082015181600201908051906020019061177f9291906129ea565b5060608201518160030160006101000a81548173ffffffffffffffffffffffffffffffffffffffff021916908373ffffffffffffffffffffffffffffffffffffffff1602179055506080820151816004015560a0820151816005015560c0820151816006015560e08201518160070160006101000a81548160ff0219169083151502179055509050507f67a37214bd6638049b0dbf92518a1cac6a53f9723b23582992b6a2292f14f7e7600354846020015185604001513387608001518860a001518960c0015160016040518089815260200180602001806020018873ffffffffffffffffffffffffffffffffffffffff1673ffffffffffffffffffffffffffffffffffffffff1681526020018781526020018681526020018581526020018415151515815260200183810383528a818151815260200191508051906020019080838360005b838110156118e05780820151818401526020810190506118c5565b50505050905090810190601f16801561190d5780820380516001836020036101000a031916815260200191505b50838103825289818151815260200191508051906020019080838360005b8381101561194657808201518184015260208101905061192b565b50505050905090810190601f1680156119735780820380516001836020036101000a031916815260200191505b509a505050505050505050505060405180910390a150505050565b6000600960008373ffffffffffffffffffffffffffffffffffffffff1673ffffffffffffffffffffffffffffffffffffffff168152602001908152602001600020549050919050565b60105481565b600b8054600181600116156101000203166002900480601f016020809104026020016040519081016040528092919081815260200182805460018160011615610100020316600290048015611a735780601f10611a4857610100808354040283529160200191611a73565b820191906000526020600020905b815481529060010190602001808311611a5657829003601f168201915b505050505081565b60045481565b600081600960003373ffffffffffffffffffffffffffffffffffffffff1673ffffffffffffffffffffffffffffffffffffffff1681526020019081526020016000206000828254039250508190555081600960008573ffffffffffffffffffffffffffffffffffffffff1673ffffffffffffffffffffffffffffffffffffffff168152602001908152602001600020600082825401925050819055508273ffffffffffffffffffffffffffffffffffffffff163373ffffffffffffffffffffffffffffffffffffffff167fddf252ad1be2c89b69c2b068fc378daa952ba7f163c4a11628f55a4df523b3ef846040518082815260200191505060405180910390a36001905092915050565b6007602052806000526040600020600091509050806000015490806001018054600181600116156101000203166002900480601f016020809104026020016040519081016040528092919081815260200182805460018160011615610100020316600290048015611c3e5780601f10611c1357610100808354040283529160200191611c3e565b820191906000526020600020905b815481529060010190602001808311611c2157829003601f168201915b505050505090806002018054600181600116156101000203166002900480601f016020809104026020016040519081016040528092919081815260200182805460018160011615610100020316600290048015611cdc5780601f10611cb157610100808354040283529160200191611cdc565b820191906000526020600020905b815481529060010190602001808311611cbf57829003601f168201915b5050505050908060030160009054906101000a900473ffffffffffffffffffffffffffffffffffffffff16908060040154908060050154908060060154908060070160009054906101000a900460ff16905088565b6005602052806000526040600020600091509050806000015490806001018054600181600116156101000203166002900480601f016020809104026020016040519081016040528092919081815260200182805460018160011615610100020316600290048015611de35780601f10611db857610100808354040283529160200191611de3565b820191906000526020600020905b815481529060010190602001808311611dc657829003601f168201915b505050505090806002018054600181600116156101000203166002900480601f016020809104026020016040519081016040528092919081815260200182805460018160011615610100020316600290048015611e815780601f10611e5657610100808354040283529160200191611e81565b820191906000526020600020905b815481529060010190602001808311611e6457829003601f168201915b5050505050908060030160009054906101000a900473ffffffffffffffffffffffffffffffffffffffff16908060040154908060050154908060060154908060070160009054906101000a900460ff16905088565b6000600a60008473ffffffffffffffffffffffffffffffffffffffff1673ffffffffffffffffffffffffffffffffffffffff16815260200190815260200160002060008373ffffffffffffffffffffffffffffffffffffffff1673ffffffffffffffffffffffffffffffffffffffff16815260200190815260200160002054905092915050565b6006602052806000526040600020600091509050806000015490806001018054600181600116156101000203166002900480601f01602080910402602001604051908101604052809291908181526020018280546001816001161561010002031660029004801561200f5780601f10611fe45761010080835404028352916020019161200f565b820191906000526020600020905b815481529060010190602001808311611ff257829003601f168201915b505050505090806002018054600181600116156101000203166002900480601f0160208091040260200160405190810160405280929190818152602001828054600181600116156101000203166002900480156120ad5780601f10612082576101008083540402835291602001916120ad565b820191906000526020600020905b81548152906001019060200180831161209057829003601f168201915b5050505050908060030160009054906101000a900473ffffffffffffffffffffffffffffffffffffffff16908060040154908060050154908060060154908060070160009054906101000a900460ff16905088565b6008602052806000526040600020600091509050806000015490806001018054600181600116156101000203166002900480601f0160208091040260200160405190810160405280929190818152602001828054600181600116156101000203166002900480156121b45780601f10612189576101008083540402835291602001916121b4565b820191906000526020600020905b81548152906001019060200180831161219757829003601f168201915b505050505090806002018054600181600116156101000203166002900480601f0160208091040260200160405190810160405280929190818152602001828054600181600116156101000203166002900480156122525780601f1061222757610100808354040283529160200191612252565b820191906000526020600020905b81548152906001019060200180831161223557829003601f168201915b5050505050908060030160009054906101000a900473ffffffffffffffffffffffffffffffffffffffff16908060040154908060050154908060060154908060070160009054906101000a900460ff16905088565b60005481565b8082111561240d578082036004819055506101006040519081016040528060035481526020018581526020018481526020013373ffffffffffffffffffffffffffffffffffffffff1681526020018381526020018281526020016004548152602001600015158152506008600060035481526020019081526020016000206000820151816000015560208201518160010190805190602001906123519291906129ea565b50604082015181600201908051906020019061236e9291906129ea565b5060608201518160030160006101000a81548173ffffffffffffffffffffffffffffffffffffffff021916908373ffffffffffffffffffffffffffffffffffffffff1602179055506080820151816004015560a0820151816005015560c0820151816006015560e08201518160070160006101000a81548160ff02191690831515021790555090505060008081548092919060010191905055506126c4565b8082101561256e578181036004819055506101006040519081016040528060035481526020018581526020018481526020013373ffffffffffffffffffffffffffffffffffffffff1681526020018381526020018281526020016004548152602001600015158152506006600060015481526020019081526020016000206000820151816000015560208201518160010190805190602001906124b19291906129ea565b5060408201518160020190805190602001906124ce9291906129ea565b5060608201518160030160006101000a81548173ffffffffffffffffffffffffffffffffffffffff021916908373ffffffffffffffffffffffffffffffffffffffff1602179055506080820151816004015560a0820151816005015560c0820151816006015560e08201518160070160006101000a81548160ff0219169083151502179055509050506001600081548092919060010191905055506126c3565b8082036004819055506101006040519081016040528060035481526020018581526020018481526020013373ffffffffffffffffffffffffffffffffffffffff16815260200183815260200182815260200160045481526020016000151581525060076000600254815260200190815260200160002060008201518160000155602082015181600101908051906020019061260a9291906129ea565b5060408201518160020190805190602001906126279291906129ea565b5060608201518160030160006101000a81548173ffffffffffffffffffffffffffffffffffffffff021916908373ffffffffffffffffffffffffffffffffffffffff1602179055506080820151816004015560a0820151816005015560c0820151816006015560e08201518160070160006101000a81548160ff0219169083151502179055509050506002600081548092919060010191905055505b5b8082036004819055506101006040519081016040528060035481526020018581526020018481526020013373ffffffffffffffffffffffffffffffffffffffff1681526020018381526020018281526020016004548152602001600015158152506008600060035481526020019081526020016000206000820151816000015560208201518160010190805190602001906127609291906129ea565b50604082015181600201908051906020019061277d9291906129ea565b5060608201518160030160006101000a81548173ffffffffffffffffffffffffffffffffffffffff021916908373ffffffffffffffffffffffffffffffffffffffff1602179055506080820151816004015560a0820151816005015560c0820151816006015560e08201518160070160006101000a81548160ff0219169083151502179055509050506003600081548092919060010191905055507f1d7afa74519c2a79d9d5ae30a55e5004783b1d3f4efcc28fc2096fa64cc46226600354858533868660045460006040518089815260200180602001806020018873ffffffffffffffffffffffffffffffffffffffff1673ffffffffffffffffffffffffffffffffffffffff1681526020018781526020018681526020018581526020018415151515815260200183810383528a818151815260200191508051906020019080838360005b838110156128de5780820151818401526020810190506128c3565b50505050905090810190601f16801561290b5780820380516001836020036101000a031916815260200191505b50838103825289818151815260200191508051906020019080838360005b83811015612944578082015181840152602081019050612929565b50505050905090810190601f1680156129715780820380516001836020036101000a031916815260200191505b509a505050505050505050505060405180910390a150505050565b61010060405190810160405280600081526020016060815260200160608152602001600073ffffffffffffffffffffffffffffffffffffffff1681526020016000815260200160008152602001600081526020016000151581525090565b828054600181600116156101000203166002900490600052602060002090601f016020900481019282601f10612a2b57805160ff1916838001178555612a59565b82800160010185558215612a59579182015b82811115612a58578251825591602001919060010190612a3d565b5b509050612a669190612a6a565b5090565b612a8c91905b80821115612a88576000816000905550600101612a70565b5090565b9056fea165627a7a723058209cde789f6384373d8ed71a5579d6fec55aae05b7b58741706d99d7735f2fec6f0029",
  "source": "pragma solidity ^0.5.0.;\r\n\r\ncontract EvContract{\r\n    uint public cntS=0;\r\n    uint public cntB=0;\r\n    uint public cntI=0;\r\n    uint public cntA=0;\r\n    uint public price=0;\r\n    mapping(uint => Car) public sellers;\r\n    mapping(uint => Car) public buyers;\r\n    mapping(uint => Car) public idles;\r\n    mapping(uint => Car) public cars;\r\n\r\n    mapping(address => uint) balances;\r\n    mapping(address => mapping(address => uint)) allowed;\r\n\r\n    string public symbol;\r\n    string public name;\r\n    uint8 public decimals;\r\n    uint public totalSupply;\r\n    uint256 public unitsOneEthCanBuy;     // How many units of your coin can be bought by 1 ETH?\r\n    uint256 public totalEthInWei;         // WEI is the smallest unit of ETH (the equivalent of cent in USD or satoshi in BTC). We'll store the total ETH raised via our ICO here.  \r\n    address payable public fundsWallet;           // Where should the raised ETH go?\r\n    //uint256 public totalSupply;\r\n\r\n\r\n    struct Car{\r\n        uint id;\r\n        string carNum;\r\n        string name;\r\n        address owner;\r\n        uint socI;\r\n        uint socR;\r\n        uint price;\r\n        bool purchased;\r\n    }\r\n\r\n    event CarSet(\r\n        uint id,\r\n        string carNum,\r\n        string name,\r\n        address owner,\r\n        uint socI,\r\n        uint socR,\r\n        uint price,\r\n        bool purchased\r\n    );\r\n\r\n    event CarBuy(\r\n        uint id,\r\n        string carNum,\r\n        string name,\r\n        address owner,\r\n        uint socI,\r\n        uint socR,\r\n        uint price,\r\n        bool purchased\r\n    );\r\n\r\n    event Transfer(\r\n        address indexed _from,\r\n        address indexed _to,\r\n        uint256 _value\r\n    );\r\n\r\n    event Approval(\r\n        address indexed _owner,\r\n        address indexed _spender,\r\n        uint256 _value\r\n    );\r\n\r\n    constructor() public {\r\n        balances[msg.sender] = 1000000000000000000000000;               // Give the creator all initial tokens. This is set to 1000 for example. If you want your initial tokens to be X and your decimal is 5, set this value to X * 100000. (CHANGE THIS)\r\n        totalSupply = 1000000000000000000000000;                        // Update total supply (1000 for example) (CHANGE THIS)\r\n        name = \"EVToken\";                                   // Set the name for display purposes (CHANGE THIS)\r\n        decimals = 18;                                               // Amount of decimals for display purposes (CHANGE THIS)\r\n        symbol = \"EVT\";                                             // Set the symbol for display purposes (CHANGE THIS)\r\n        unitsOneEthCanBuy = 10;                                      // Set the price of your token for the ICO (CHANGE THIS)\r\n        fundsWallet = msg.sender;                                  // The owner of the contract gets ETH\r\n    }\r\n    \r\n    function() external payable {\r\n        totalEthInWei = totalEthInWei + msg.value;\r\n        uint256 amount = msg.value * unitsOneEthCanBuy;\r\n        require(balances[fundsWallet] >= amount);\r\n\r\n        balances[fundsWallet] = balances[fundsWallet] - amount;\r\n        balances[msg.sender] = balances[msg.sender] + amount;\r\n\r\n        emit Transfer(fundsWallet, msg.sender, amount); // Broadcast a message to the blockchain\r\n\r\n        fundsWallet.transfer(msg.value);\r\n    }\r\n\r\n    function balanceOf(address _owner) public view returns (uint balance){\r\n        return balances[_owner];\r\n    }\r\n\r\n    /**\r\n     * Transfers tokens from the sender's wallet to the specified `_to` wallet.\r\n     * @param _to Address of the transfer's recipient.\r\n     * @param _value Number of tokens to transfer.\r\n     * @return True if the transfer succeeded.\r\n     */\r\n    function transfer(address _to, uint _value) public returns (bool success) {\r\n        balances[msg.sender] -= _value;\r\n        balances[_to] += _value;\r\n        emit Transfer(msg.sender, _to, _value);\r\n        return true;\r\n    }\r\n\r\n    /**\r\n     * Transfer tokens from any wallet to the `_to` wallet. This only works if\r\n     *     the `_from` wallet has already allocated tokens for the caller keyset\r\n     *     using `approve`. From wallet must have sufficient balance to\r\n     *     transfer. Caller must have sufficient allowance to transfer.\r\n     * @param _from Wallet address that tokens are withdrawn from.\r\n     * @param _to Wallet address that tokens are deposited to.\r\n     * @param _value Number of tokens transacted.\r\n     * @return True if the transfer succeeded.\r\n     */\r\n    function transferFrom(address _from, address _to, uint _value) public returns (bool success){\r\n        balances[_from] -= _value;\r\n        allowed[_from][address(0)] -= _value;\r\n        balances[_to] += _value;\r\n        emit Transfer(_from, _to, _value);\r\n        return true;\r\n    }\r\n\r\n    /**\r\n     * Sender allows another wallet to `transferFrom` tokens from their wallet.\r\n     * @param _spender Address of `transferFrom` recipient.\r\n     * @param _value Number of tokens to `transferFrom`.\r\n     * @return True if the approval succeeded.\r\n     */\r\n    function approve(address _spender, uint _value) public returns (bool success) {\r\n        allowed[msg.sender][_spender] = _value;\r\n        emit Approval(msg.sender, _spender, _value);\r\n        return true;\r\n    }\r\n\r\n    /**\r\n     * Gets the number of tokens that a `_owner` has approved for a _spender\r\n     *     to `transferFrom`.\r\n     * @param _owner Wallet address that tokens can be withdrawn from.\r\n     * @param _spender Wallet address that tokens can be deposited to.\r\n     * @return The number of tokens allowed to be transferred.\r\n     */\r\n    function allowance(address _owner, address _spender) public view returns (uint remaining) {\r\n        return allowed[_owner][_spender];\r\n    }\r\n\r\n    function setCar(string memory _carNum, string memory _name, uint _socI, uint _socR) public{\r\n        if(_socI > _socR){\r\n            price = _socI - _socR;\r\n            cars[cntA] = Car(cntA,_carNum, _name, msg.sender, _socI, _socR,price, false);\r\n            cntS++;\r\n            \r\n        } else if (_socI < _socR){\r\n            price = _socR - _socI;\r\n            buyers[cntB] = Car(cntA, _carNum, _name, msg.sender, _socI, _socR,price,false);\r\n            cntB++;\r\n        } else{\r\n            price = _socI - _socR;\r\n            idles[cntI] = Car(cntA, _carNum, _name, msg.sender, _socI, _socR,price,false);\r\n            cntI++;\r\n        }\r\n        price = _socI - _socR;\r\n        cars[cntA] = Car(cntA, _carNum, _name, msg.sender, _socI, _socR,price,false);\r\n        cntA++;\r\n\r\n        emit CarSet(cntA, _carNum, _name, msg.sender, _socI, _socR, price, false);\r\n    }\r\n\r\n    function buyCar(uint _id) public payable{\r\n        Car memory _car = cars[_id];\r\n        address _r = _car.owner;\r\n        require(_r != msg.sender);\r\n        require(!_car.purchased);\r\n        uint rprice = _car.price * 1000000000000000000;\r\n        transfer(_car.owner,rprice);\r\n        // Transfer ownership to the buyer\r\n        _car.owner = msg.sender;\r\n        // Mark as purchased\r\n        _car.purchased = true;\r\n        // Update the product\r\n        cars[_id] = _car;\r\n\r\n        emit CarBuy(cntA, _car.carNum, _car.name, msg.sender, _car.socI, _car.socR, _car.price, true);\r\n    }\r\n}",
  "sourcePath": "C:/Users/yeji/EvContract/contracts/EvContract.sol",
  "compiler": {
    "name": "solc",
    "version": "0.5.0+commit.1d4f565a.Emscripten.clang"
  },
  "schemaVersion": "3.0.2",
  "updatedAt": "2020-01-30T01:09:00.903Z",
  "devdoc": {
    "methods": {
      "allowance(address,address)": {
        "params": {
          "_owner": "Wallet address that tokens can be withdrawn from.\r",
          "_spender": "Wallet address that tokens can be deposited to.\r"
        },
        "return": "The number of tokens allowed to be transferred.\r"
      },
      "approve(address,uint256)": {
        "params": {
          "_spender": "Address of `transferFrom` recipient.\r",
          "_value": "Number of tokens to `transferFrom`.\r"
        },
        "return": "True if the approval succeeded.\r"
      },
      "transfer(address,uint256)": {
        "params": {
          "_to": "Address of the transfer's recipient.\r",
          "_value": "Number of tokens to transfer.\r"
        },
        "return": "True if the transfer succeeded.\r"
      },
      "transferFrom(address,address,uint256)": {
        "params": {
          "_from": "Wallet address that tokens are withdrawn from.\r",
          "_to": "Wallet address that tokens are deposited to.\r",
          "_value": "Number of tokens transacted.\r"
        },
        "return": "True if the transfer succeeded.\r"
      }
    }
  },
  "userdoc": {
    "methods": {
      "allowance(address,address)": {
        "notice": "Gets the number of tokens that a `_owner` has approved for a _spender\r    to `transferFrom`.\r"
      },
      "approve(address,uint256)": {
        "notice": "Sender allows another wallet to `transferFrom` tokens from their wallet.\r"
      },
      "transfer(address,uint256)": {
        "notice": "Transfers tokens from the sender's wallet to the specified `_to` wallet.\r"
      },
      "transferFrom(address,address,uint256)": {
        "notice": "Transfer tokens from any wallet to the `_to` wallet. This only works if\r    the `_from` wallet has already allocated tokens for the caller keyset\r    using `approve`. From wallet must have sufficient balance to\r    transfer. Caller must have sufficient allowance to transfer.\r"
      }
    }
  }
}